01John                        Doe                           Johnathan Doe                 1234 Elm Street, Apt 101    \n
02000001000000005000USD                                                                                               \n
02000002000000000050USD                                                                                               \n
02000003000000001000EUR                                                                                               \n
02000004000000000050USD                                                                                               \n
02000005000000000050USD                                                                                               \n
02000006000000000100USD                                                                                               \n
02000007000000010000USD                                                                                               \n
02000008000000010000USD                                                                                               \n
02000009000000010000USD                                                                                               \n
03000009000000097500                                                                                                  \n