01John                         Doe                          Johnathan Doe                1234 Elm Street, Apt 101      \n
02000001000000005000USD                                                                                                \n
02000002000000015000USD                                                                                                \n
02000003000000007500EUR                                                                                                \n
03000003000000027500                                                                                                   \n
