01John                        Doe                           Johnathan Doe                 1234 Elm Street, Apt 101    \n
02000001000000005000USD                                                                                               \n
02000002000000001000USD                                                                                               \n
02000003000000000100EUR                                                                                               \n
02000004000000010000USD                                                                                               \n
03000004000000116050                                                                                                  \n
